:020000040800F2
:10000000F82F0020C5010008A5290008AD27000829
:10001000A12900082F0F0008C530000800000000CB
:100020000000000000000000000000002D0100089A
:10003000330F00080000000071010008E12C0008E7
:10004000DF010008DF010008DF010008DF01000810
:10005000DF010008DF010008DF010008DF01000800
:10006000DF010008DF010008DF010008DF010008F0
:10007000DF010008DF010008DF010008DF010008E0
:10008000DF010008DF010008DF010008DF010008D0
:10009000DF010008DF010008DF010008DF010008C0
:1000A000DF010008F52D0008DF010008DF0100086E
:1000B000DF010008DF010008DF010008DF010008A0
:1000C000DF010008DF010008DF010008DF01000890
:1000D000DF010008DF010008DF010008DF01000880
:1000E000DF010008DF010008DF010008DFF80CD0A5
:1000F00000F0A2FC00480047E13D0008F82F002076
:1001000010F8012B01F8012B002AF9D170470420C7
:100110007146084202D0EFF3098001E0EFF3088056
:100120007146014A10470000853C0008224B1968BF
:100130000868B0E8F00F80F30988BFF36F8F4FF0C5
:10014000000080F311884EF00D0E70470000000093
:1001500006480068006880F3088862B661B6BFF39D
:100160004F8FBFF36F8F00DF00BF00BF08ED00E0CF
:10017000EFF30980BFF36F8F0F4B1A6820E9F00F80
:10018000106008B54FF0500080F31188BFF34F8F17
:10019000BFF36F8F04F0E4FF4FF0000080F311888D
:1001A000BDE8084019680868B0E8F00F80F30988D6
:1001B000BFF36F8F704700BF20000020EFF3058072
:1001C000704700000648804706480047FEE7FEE704
:1001D000FEE7FEE7FEE7FEE7FEE7FEE7FEE7FEE7F7
:1001E0009D2D0008ED000008202A04DB203A21FAAA
:1001F00002F00021704721FA02F3D040C2F1200240
:10020000914008431946704740EA01039B0703D019
:1002100009E008C9121F08C0042AFAD203E011F845
:10022000013B00F8013B521EF9D27047D2B201E007
:1002300000F8012B491EFBD270470022F6E710B5EB
:1002400013460A4604461946FFF7F0FF204610BD44
:1002500030B505462A460B4612F8010B13F8014B40
:1002600008B1A042F8D01CB1002802D06D1CF1E703
:10027000284630BDCAB2401E10F8011F8A4202D083
:100280000029F9D100207047421C10F8011B0029F9
:10029000FBD1801A7047CBB203E00178994203D0BA
:1002A000401C521EF9D20020704730B50546002090
:1002B000034600E05B1C934205D2EC5CC85C201A4C
:1002C00001D1002CF6D130BD70B5064602F052FFC8
:1002D000046805460A220021304600F097F92C6098
:1002E00070BDF0B480EA0102D40F4200B2EB410FBE
:1002F00002D20246084611464A0042D0C30DDDB282
:10030000C1F3C752AD1A202D35DAC1F3160141F4FD
:10031000000204B15242C5F1200602FA06F12A4158
:100320001044B3EBD05F23D0C4B1012DA0EBC35078
:1003300009DCF0BC4FF0004202EAC352DBB200F528
:10034000000000F0A4B9400000F1807000EBC35041
:10035000A0F1807040EAD170490009E0490841EA03
:10036000C071A0EBC35000F50000400800EBC35083
:10037000F0BC00F083B96142012202EB4101001B95
:10038000F6E7F0BC704781F00041AAE780F000403A
:10039000A7E72DE9F04D81EA030404F0004B21F0BA
:1003A000004514464FF0000A23F0004150EA0502D0
:1003B00020D054EA01021DD0C5F30A570246C5F306
:1003C0001303C1F31300C1F30A5640F4801543F43C
:1003D0008013A7EB0608101BD64608F2FD3873EB16
:1003E000050002D308F1010801E092185B41B8F161
:1003F000000F03DA00200146BDE8F08D00204FF425
:100400008011064684460EE0171B73EB050705D3E3
:10041000121B63EB050306434CEA010C49084FEA43
:10042000300092185B4150EA0107EDD152EA030017
:1004300012D082EA040083EA0501084305D0101BAC
:10044000AB4106D20122002306E000224FF0004318
:1004500002E06FF0010253101AEB06004CEB08515A
:1004600010EB0A0041EB0B01BDE8F04D00F03DB987
:10047000C10F80EAE0700844CA079623002100F00B
:1004800006B900F0004230F000400AD0C10D01F57D
:100490006071C0F3160042EA0151C20840071143DF
:1004A000704700200146704701F0004330B421F04E
:1004B000004150EA010206D00A0DA2F56072C1F3B4
:1004C0001301002A02DC30BC00207047440F44EACC
:1004D000C104C100E01830BC00EBC25000F0CEB83F
:1004E00030B50B46014600202022012409E021FA04
:1004F00002F59D4205D303FA02F5491B04FA02F501
:100500002844151EA2F10102F1DC30BD2DE9F05F97
:100510000546002092469B46884606468146402472
:100520001BE02846414647462246FFF75DFE5346FC
:100530005A46C01A914110D311461846224600F07F
:100540008DFA2D1A67EB01084F4622460120002143
:1005500000F084FA17EB00094E41201EA4F10104BB
:10056000DFDC484631462A464346BDE8F09F00009E
:100570000FB4002300B589B00CA900910B996FF05E
:100580000042CB601E4B06931E4B07930423CDE91C
:1005900001321D4A089202466B46002000F022FB01
:1005A00009B05DF814FB70B586B006464FF0FF3019
:1005B0000091CDE90101002015460C460490324619
:1005C000694604A8FFF7D4FF02460498211825B114
:1005D00008B1084600E020462860049800280DD0A5
:1005E000002A02DD0098884208D0081B0094CDE95B
:1005F00001043246694604A8FFF7BAFF06B070BD91
:100600001D0E00083B0E0008A90A00082DE9F0475E
:1006100091460F4680460446002614F8015B2DB132
:1006200000F03EFA0068405DC007F6D12B2D02D0E5
:100630002D2D18D0641E4A463946204600F00EFC87
:1006400027B13968A14201D1C7F8008071054FF088
:1006500002040BD54042002803DD02F08BFD04604C
:10066000A007BDE8F08746F48066E4E70028F8DAE2
:1006700002F080FD04606FF00040F2E70029A8BF9F
:100680007047401C490008BF20F00100704710B4BB
:10069000B0FA80FC00FA0CF050EA010404BF10BC70
:1006A000704749B1CCF1200421FA04F411FA0CF19D
:1006B00018BF012121430843A3EB0C01CB1D4FEAD6
:1006C00000614FEA102042BF002010BC704700EBD1
:1006D000C35010440029A4BF10BC7047401C4900FF
:1006E00008BF20F0010010BC704710B5141E73F154
:1006F000000408DA401C41F1000192185B411A43E2
:1007000001D120F0010010BD2DE9F04D92469B462D
:1007100011B1B1FA81F202E0B0FA80F220329046D3
:1007200000F09CF904460F4640EA0A0041EA0B013A
:1007300053465A46084313D0114653EA010019D0D4
:10074000C8F140025046FFF74FFD05460E465046A1
:100750005946424600F082F9084305D0012004E0E2
:1007600020463946BDE8F08D0020054346EAE07694
:100770002C4337430A986305E40AA0EB08000022E3
:10078000FD0A44EA47540A3002D500200146E9E751
:10079000010510196941DDE9084500196941BDE805
:1007A000F04DA2E72DE9FE4F804681EA0300C00F1D
:1007B0000C46009021F0004123F00045B8EB020008
:1007C000A94105D24046214690461C460B460246AA
:1007D00023F00040104347D0270DC7F30A00C3F3AE
:1007E0000A510290401A019040286BDAC3F31300BB
:1007F00040F4801B0098924620B10023D2EB030AFC
:1008000063EB0B0B01985946C0F14002504600F0D3
:1008100025F906460D4650465946019A00F02DF935
:1008200010EB08006141002487EA115284EAE77363
:100830001A4340D0009A62B3019A012A4FEA075244
:1008400015DC001B61EB02014FF0004202EA075287
:10085000CDE90042001C41F5801132462B46FFF7DE
:1008600053FF03B0BDE8F08F40462146F9E7001B77
:1008700061EB0201001C41F5801300185B41201858
:10088000A2F5001747EB030140EAD570B6196D4198
:1008900011E06D084FEA360645EAC0754FEA075287
:1008A000001B61EB0201001C41F5801149084FEA71
:1008B00030000019514132462B4603B0BDE8F04FDD
:1008C000FFF713BF0098012240000023D0EB020283
:1008D00063EBE073009821464FEAE074B8EB000048
:1008E00061EB0401E9E783F000435BE781F000413D
:1008F00058E72DE9FE4F81EA030404F0004421F09B
:10090000004100944FF0000B23F0004350EA010433
:100910005ED052EA03045BD0C3F30A54C1F30A5514
:100920002C44A4F2F3340194A0FB0254C1F313014C
:1009300041F48011C3F3130343F4801301FB024419
:1009400000FB034E840A970A44EA815447EA83571E
:10095000A4FB076802958D0A05FB07854FEA932CD7
:1009600004FB0C542705029D4FEA065847EA163748
:10097000B5EB08056EEB070C870E920E47EA811760
:1009800042EA8312A7FB0201B6EB0B0164EB000401
:100990002B0D43EA0C335E1844EB1C50DA465146EB
:1009A000E7FB0201C5F313044FEA0B3343EA145388
:1009B0004FEA0432019C43EA0603A4F10C040294BA
:1009C000009CCDE900B4FFF79FFE03B0BDE8F08FB7
:1009D00000200146F9E7C1F30A52C1F3130140F2C6
:1009E000FF3341F480119A4202DA00200146704739
:1009F00040F233439A42A2F2334202DC5242FFF702
:100A0000F3BB00F02BB8000030B5041E71F10004F8
:100A100004DB4FF00044404264EB0101141E73F10B
:100A2000000405DB1C464FF00043524263EB040315
:100A3000994208BF904230BD064C074D06E0E06881
:100A400040F0010394E8070098471034AC42F6D315
:100A5000FFF750FBA85E0008C85E0008202A04DBF0
:100A6000203A00FA02F1002070479140C2F12003C1
:100A700020FA03F3194390407047202A06DBCB1776
:100A8000203A41FA02F043EAE07306E041FA02F349
:100A9000D040C2F12002914008431946704700003F
:100AA000004870473C5E000810B50446FFF7F8FFA9
:100AB0000068005D00F0010010BD00002DE9FF4F4F
:100AC000087883B09946FF2805D0491C2D2804D00A
:100AD0000024002008E000200BE00124F9E700EBEF
:100AE000800003EB4000491C0B78FF2BF7D104B1C9
:100AF000404200230293147819461D462D2C01D044
:100B00002B2C04D1521C2D2C13D000240294AA4665
:100B10001478FF2C0FD00A25A3FB057801FB058173
:100B20004FF0000C03FB0C11521CE3194AEB0101BE
:100B3000EEE70124EAE7814453EA010002D019F507
:100B4000C87F06DA03980021C0E9001107B0BDE8AC
:100B5000F08F0025AE4E2F46DFF8B882184600F021
:100B6000DAF9CDE90001B9F1000002DAC9F10004B7
:100B700000E004460023A74A1AEB030B42EB045A99
:100B800012E0E00707D02A46334638464146FFF7D1
:100B9000B0FE074688462A46334610461946FFF7F8
:100BA000A8FE05460E466410002CEAD1DDE90001DE
:100BB000B9F1000F5A46534606DAFFF7EAFB3A4608
:100BC0004346FFF7E6FB05E0FFF793FE3A46434650
:100BD000FFF78FFE029A0AB181F00041039AC2E941
:100BE0000001B3E72DE9FF4F1F468DB0D7E901465D
:100BF0004FF0FF382E2045464FF000090B90B969A1
:100C00006D1C0E988847396A824688470028F6D1BD
:100C1000BAF1FF3F0AD024F4D064002E11DDBAF1FE
:100C20002B0F08D0BAF12D0F0BD102E0404611B0C6
:100C30008DE744F48064B9696D1C0E98884782463C
:100C4000761E6946600501D52D2000E02B208DF829
:100C5000000001F1010B0DF1200809E0B9696D1CDC
:100C60000E98884782460F9844F40074761E0560FB
:100C7000002E02DDBAF1300FF0D00B998A453ED13B
:100C800044F0800406E00F99681CA9F1010944F4BE
:100C900000740860B9696D1C761E0E9888478246FC
:100CA0003028F0D02BE00B998A4505D1200603D4DB
:100CB00044F08004761E18E0504602F03DFB08B375
:100CC0000DF11301761E44F400748B4508D2AAF18D
:100CD00030000BF8010B200607D5A9F1010003E055
:100CE000200602D409F101008146A00502D50F9922
:100CF000681C0860B9696D1C0E9888478246002EF2
:100D0000D1DC53E0002E51DDBAF1650F02D0BAF10B
:100D1000450F4BD1A00549D5B9696D1C24F4407429
:100D2000761E0E9888478246002E0CDD2B2804D0B4
:100D3000BAF12D0F07D144F48074B9696D1C0E9877
:100D400088478246761EE00501D52D2100E02B2143
:100D500008F8011BCDF82C8021E00DF12901761E49
:100D600044F4007488450CD2AAF1300010F0FF0062
:100D700088F8000002D10B99884509D908F10108CB
:100D800006E0E00501D5244801E042F20F708146FB
:100D9000B9696D1C0E98884782460F980560002E31
:100DA00004DD504602F0C8FA0028D6D1F9690E9841
:100DB0008847FF208BF8000088F80000002006908C
:100DC00007904B466A4608A906A8FFF777FEA005DC
:100DD00002D46FF001002AE714F0240F0AD0E007D4
:100DE00014D1DDE906123868031D3B600068C0E9D4
:100DF00000120BE0DDE90601FFF756FB0146E007B4
:100E000004D13868021D3A600068016028460EE788
:100E1000000014400000F03FF1D8FFFF426842B1EB
:100E2000016811F8013B23B1521EC0E900121846B7
:100E300070470121C160881E704742685AB1C3687B
:100E4000016843B983688B4205D0491E521CC0E932
:100E50000012002070474FF0FF3070472DE9F05F1F
:100E600082460078002715468B460AF10104B946F0
:100E7000302801D09DB113E014F8010B0127782828
:100E800003D0582801D045B10AE00DB1102D07D18B
:100E90000027102514F8010B02E0082500E00A25C0
:100EA0000026B0460EE005FB080005FB06F1012711
:100EB00001EB10461FFA80F8B6F5803F00D3B94623
:100EC00014F8010B294600F018F80028EBDABBF102
:100ED000000F05D00FB1641E00E05446CBF800406F
:100EE000B9F1000F06D002F045F902210160C81ED9
:100EF000BDE8F09F48EA0640FAE73A2800D23038C9
:100F000020F02002412A01D3A2F13700884201D308
:100F10004FF0FF3070470EB540F23342029200228C
:100F2000CDE900221346FFF7EFFB03B000BD00BF81
:100F3000FEE770477047000070B5044600F0A6F960
:100F400006462546681C10B104480078054400BFD9
:100F500000F09CF9801BA842FAD370BD1800002055
:100F60002DE9F8470346002294466EE14FF0010850
:100F700008FA02F4D1F8008008EA0400A0427DD10A
:100F8000DFF8DCA2D1F80480A8EB0A09D0453AD0FA
:100F900014DCB8F1030F50D009DCB8F1000F31D0E8
:100FA000B8F1010F1CD0B8F1020F49D120E0B8F11F
:100FB000110F18D0B8F1120F42D11EE0B9F5881FF9
:100FC00025D006DCB9F5803F20D0B9F5801F37D198
:100FD0001AE0B9F5001F18D0B9F5041F30D117E099
:100FE000D1F80CC02DE0D1F80C8008F1040C28E0F9
:100FF000D1F80C8008F1080C23E0D1F80C8008F13E
:101000000C0C1EE000BF00BF00BF00BF00BF00BF50
:10101000D1F80880B8F1000F02D14FF0040C0BE0BA
:10102000D1F80880B8F1010F03D14FF0080C1C6112
:1010300002E04FF0080C5C6103E04FF0000C00E0B0
:1010400000BF00BFFF2801D8984601E003F1040863
:101050004646FF2802D84FEA820803E0A2F10808BA
:101060004FEA88084746D6F800804FF00F0909FA82
:1010700007F928EA09080CFA07F900E088E048EACD
:101080000908C6F80080D1F8048008F08058B8F14B
:10109000805F7DD100BFDFF8CC81D8F8188048F0A0
:1010A0000108DFF8C091C9F81880C846D8F8188040
:1010B00008F00108CDF8008000BF00BF4FEAB93842
:1010C0004FEA920958F829504FEA82784FEA187986
:1010D0004FF00F0808FA09F825EA0805DFF88881BB
:1010E000434502D14FF0000816E0DFF88081434508
:1010F00002D14FF001080FE0DFF87481434502D1BF
:101100004FF0020808E0DFF86C81434502D14FF050
:10111000030801E04FF004084FEA82794FEA197999
:1011200008FA09F848EA0505DFF84C814FEA920908
:1011300048F82950D1F8048008F48038B8F5803F89
:101140000AD1DFF83881D8F8008048EA0008DFF8D3
:101150002C91C9F8008009E0DFF82081D8F80080E0
:1011600028EA0008DFF81491C9F80080D1F804805B
:1011700008F40038B8F5003F10D1DFF8008108F11D
:101180000408D8F8008048EA0008DFF8F09000E092
:101190005AE009F10409C9F800800DE0DFF8DC80AD
:1011A00008F10408D8F8008028EA0008DFF8CC909D
:1011B00009F10409C9F80080D1F8048008F4801806
:1011C000B8F5801F0ED1DFF8B48008F10808D8F810
:1011D000008048EA0008DFF8A49009F10809C9F87E
:1011E00000800DE0DFF8948008F10808D8F800804E
:1011F00028EA0008DFF8849009F10809C9F800809E
:10120000D1F8048008F40018B8F5001F0ED1DFF8FB
:101210006C8008F10C08D8F8008048EA0008DFF874
:101220005C9009F10C09C9F800800DE0DFF84C80F2
:1012300008F10C08D8F8008028EA0008DFF83C9094
:1012400009F10C09C9F80080521CD1F8008028FA75
:1012500002F8B8F1000F7FF489AEBDE8F88700000E
:10126000000011100010024000080140000C014075
:10127000001001400014014008000140000401403A
:101280000AB1016101E00B04036170470148006885
:1012900070470000100000200348006803490978E7
:1012A0000844014908607047100000201800002021
:1012B00010B50848006840F0100006490860032097
:1012C00000F0CCF8002000F007F800F049F800200A
:1012D00010BD00000020024070B588B00446002513
:1012E000002600222146192000F07AF8192000F08B
:1012F00067F800BF1648806940F4006014498861AF
:101300000846806900F40060019000BF00BF02A998
:1013100003A800F0A7FA00F0DDFA05460D48B5FB7A
:10132000F0F0461E0C480D49086040F2E7310B48CA
:10133000C160466000210161816000F097FF20B923
:10134000064800F0AEFF08B070BD0120FBE70000CA
:101350000010024040420F00002C0140B803002062
:1013600008B500BF1448806940F001001249886147
:101370000846806900F00100009000BF00BF00BF78
:101380000846C06940F08050C8610846C06900F056
:101390008050009000BF00BF00220F21901E00F07F
:1013A0001FF800BF0549486820F0E06040F0007079
:1013B000486000BF08BD000000100240000001406E
:1013C00001460846002809DB00F01F0301229A406D
:1013D00043099B0003F1E023C3F8002100BF7047DD
:1013E0002DE9F05F80460D461646002701F0A6FE67
:1013F000074639462A46334601F00700C0F1070A7E
:10140000BAF1040F02D94FF0040A01E0C0F1070A53
:10141000D14600F1040ABAF1070F02D24FF0000AD8
:1014200001E0A0F1030AD4464FF0010A0AFA09FAD2
:10143000AAF1010A0AEA020A0AFA0CFA4FF0010BB1
:101440000BFA0CFBABF1010B0BEA030B4AEA0B04A2
:101450002146404601F07AFEBDE8F09F00BF00F053
:101460000702064B19684FF6FF031940044B0B4364
:1014700043EA0221014B196000BF70470CED00E008
:101480000000FA05012001490862704700000E4281
:101490002DE9F04385B006463BA30FCB01AC0FC44A
:1014A0003DA0006800904FF00008002500270024B0
:1014B000A146012E30D0022E55D0102E5ED13748D5
:1014C0004468006800F0807000B301A8C4F3834151
:1014D000475C04F4803070B130484068C0F340404D
:1014E0001DF8008004F4803040B12D48B0FBF8F0C6
:1014F00000FB07F502E02B4807FB00F52748406892
:1015000000F48000B0F5800F01D1A94603E0680027
:101510000321B0FBF1F932E02048046A04F4407082
:10152000B0F5807F05D104F0020010B14FF40049FE
:1015300018E004F44070B0F5007F07D11748406A06
:1015400000F0020010B149F640490BE004F440708D
:10155000B0F5407F06D11148006800F4003008B1B2
:101560004FF224490BE000F0B5F90C494968C1F38A
:101570008131491C4900B0FBF1F900E000BF00BF18
:10158000484605B0BDE8F0830203040506070809D4
:101590000A0B0C0D0E0F101001020000001002408B
:1015A00000127A0000093D00F8B504460026002527
:1015B000207800F0010000286BD000274348C06964
:1015C00000F0805070B900BF4048C06940F08050C2
:1015D0003E49C8610846C06900F08050009000BFD5
:1015E00000BF01273A48006800F48070B0B938485D
:1015F000006840F4807036490860FFF747FE0646F1
:1016000006E0FFF743FE801B642801D90320F8BDE4
:101610002F48006800F480700028F2D02B48006A40
:1016200000F440752DB3A08800F44070A84220D08B
:101630002648006A20F440750120264908600020F1
:1016400008602248056205F0010090B1FFF71EFE18
:10165000064608E0FFF71AFE801B41F288318842F7
:1016600001D90320D3E71948006A00F002000028DE
:10167000F0D01648006A20F44070616808431349AE
:101680000862012F04D10846C06920F08050C8616B
:1016900000BF207800F00200022807D10B48406804
:1016A00020F44040A168084308494860207800F0D1
:1016B0001000102807D10548406820F48000E16838
:1016C0000843024948600020A1E7000000100240E2
:1016D000007000404004424270B504460D460CB90B
:1016E000012070BD5A48006800F00700A8420ED2E1
:1016F0005748006820F0070028435549086008460D
:10170000006800F00700A84201D00120E9E7207836
:1017100000F0020002281DD1207800F00400042807
:1017200005D14C48406840F4E0604A494860207860
:1017300000F00800082805D14648406840F4605091
:10174000444948604348406820F0F000A1680843DD
:1017500040494860207800F0010078B360680128B3
:1017600006D13C48006800F4003090B90120B8E789
:101770006068022806D13748006800F0007040B960
:101780000120AEE73348006800F0020008B90120EC
:10179000A7E73048406820F00300616808432D49FE
:1017A0004860FFF773FD064609E0FFF76FFD801BF9
:1017B00041F28831884202D9032092E707E02548A8
:1017C000406800F00C006168B0EB810FEDD120485B
:1017D000006800F00700A8420ED91D48006820F0FC
:1017E000070028431A4908600846006800F007000F
:1017F000A84201D0012074E7207800F004000428FA
:1018000007D11448406820F4E060E16808431149BA
:101810004860207800F00800082808D10D4840688A
:1018200020F46050216940EAC1000A49486000F094
:1018300061F808494968C1F30311074A515CC8407F
:101840000649086006480068FFF746FD002048E7A3
:101850000020024000100240A05D00081C00002093
:10186000140000200F2202600D4A526802F00302A9
:1018700042600B4A526802F0F0028260084A5268E5
:1018800002F4E062C260064A526802F46052D20872
:101890000261044A126802F007020A607047000001
:1018A000001002400020024001480068704700001C
:1018B0001C00002000B5FFF7F7FF04494968C1F399
:1018C0000221034A515CC84000BD000000100240E4
:1018D000B05D000800B5FFF7E7FF04494968C1F3B0
:1018E000C221034A515CC84000BD00000010024004
:1018F000B05D0008F0B585B00FF26C0C9CE8E0100C
:1019000001A8A0E8E0101CA52D6800950021002288
:10191000002300240020194D696801F00C05F5B181
:10192000042D02D0082D19D101E0154819E001ADB0
:10193000C1F38346AC5D01F4803555B10F4D6D6840
:10194000C5F340451DF805200D4D6543B5FBF2F389
:1019500002E00C4D04FB05F3184602E000BF084806
:1019600000BF00BF05B0F0BD02030405060708096B
:101970000A0B0C0D0E0F10100102000000100240A7
:1019800000127A0000093D00F8B504460CB90120A8
:10199000F8BD207800F00100002878D0F8484068B1
:1019A00000F00C0004280CD0F548406800F00C0052
:1019B000082811D1F248406800F48030B0F5803F2B
:1019C0000AD1EF48006800F4003000285FD060685A
:1019D00000285CD10120DBE700BF6068B0F5803FE4
:1019E00006D1E748006840F48030E549086028E007
:1019F000606858B9E248006820F48030E049086027
:101A00000846006820F4802008601AE06068B0F59D
:101A1000A02F0BD1DA48006840F48020D849086034
:101A20000846006840F4803008600AE0D448006846
:101A300020F48030D24908600846006820F48020F5
:101A4000086000BF606888B1FFF720FC054606E02B
:101A5000FFF71CFC401B642801D9032098E7C84805
:101A6000006800F400300028F2D010E0FFF70EFC10
:101A7000054606E0FFF70AFC401B642801D9032055
:101A800086E7BF48006800F400300028F2D12078D3
:101A900000F00200022857D1B948406800F00C005D
:101AA00050B1B748406800F00C00082818D1B4487D
:101AB000406800F4803098B9B148006800F0020036
:101AC00020B12069012801D0012061E7AC480068FD
:101AD00020F0F800616940EAC100A949086033E0DC
:101AE0002069E8B10120A7490860FFF7CFFB054650
:101AF00006E0FFF7CBFB401B022801D9032047E794
:101B00009F48006800F002000028F2D09C4800685E
:101B100020F0F800616940EAC1009949086013E0CB
:101B2000002098490860FFF7B1FB054606E0FFF783
:101B3000ADFB401B022801D9032029E7904800682B
:101B400000F002000028F2D1207800F008000828F8
:101B50002DD1A069B8B101208B490860FFF796FB31
:101B6000054606E0FFF792FB401B022801D903203F
:101B70000EE78348406A00F002000028F2D00120FE
:101B800000F012FF13E000207F490860FFF77EFBA2
:101B9000054606E0FFF77AFB401B022801D9032027
:101BA000F6E67748406A00F002000028F2D120787B
:101BB00000F00400042873D100277148C06900F0C8
:101BC000805070B900BF6E48C06940F080506C49C9
:101BD000C8610846C06900F08050009000BF00BF97
:101BE00001276A48006800F48070B0B9674800684F
:101BF00040F4807065490860FFF748FB054606E041
:101C0000FFF744FB401B642801D90320C0E65F486E
:101C1000006800F480700028F2D000BFE06801285E
:101C200006D15748006A40F001005549086227E094
:101C3000E06858B95248006A20F001005049086233
:101C40000846006A20F00400086219E0E0680528F0
:101C50000BD14B48006A40F004004949086208462D
:101C6000006A40F0010008620AE04548006A20F07E
:101C70000100434908620846006A20F00400086237
:101C800000BFE068A0B1FFF701FB054609E0FFF7E0
:101C9000FDFA401B41F28831884202D9032077E6E1
:101CA00022E03748006A00F002000028EFD012E07E
:101CB000FFF7ECFA054608E0FFF7E8FA401B41F2AF
:101CC0008831884201D9032062E62D48006A00F07D
:101CD00002000028F0D1012F05D12948C06920F069
:101CE00080502749C86100BFE069C8B324484068F4
:101CF00000F00C00082860D0E069022848D10020DC
:101D000020490866FFF7C2FA054606E0FFF7BEFA6B
:101D1000401B022801D903203AE61948006800F068
:101D200000700028F2D1206AB0F5803F07D1144836
:101D3000406820F40030A168084311494860D4E9A4
:101D4000080108430E49496821F4741108430C49FD
:101D5000486001200B490866FFF798FA054607E03E
:101D60003DE0FFF793FA401B022801D903200FE65C
:101D70000348006800F000700028F2D02FE0000057
:101D800000100240000042428004424200700040C5
:101D9000002014490866FFF779FA054606E0FFF7C8
:101DA00075FA401B022801D90320F1E50E480068AE
:101DB00000F000700028F2D111E0E069012800D1A4
:101DC000E6E50948466806F48031206A814204D17C
:101DD00006F47011606A814201D00120D8E500202C
:101DE000D6E500000000424200100240F8B505466A
:101DF0000C4616460020009005B10CB90120F8BD34
:101E000000226946284600F01AF808B10120F6E7DA
:101E1000287B2070E87BE070687B6070A87BA070F6
:101E20005EB1E07800F0DFFDE070607800F0DBFD8F
:101E30006070A07800F0D7FDA0700020DFE72DE9EA
:101E4000F04780460C46914600250026AA4600270A
:101E5000B8F1000F00D014B90120BDE8F087D8F820
:101E600000004068C0F3800008B10120F5E740465B
:101E700000F080FE05464FF46160B5FBF0F7B5FB5E
:101E8000F0F100FB11503C21B0FBF1F060704FF419
:101E90006160B5FBF0F100FB11503C21B0FBF1F2A9
:101EA00001FB1200A070182F39D31820B7FBF0FAED
:101EB000B7FBF0F100FB11702070404600F04EFEC1
:101EC0000646701C18B1AE4201D9761B01E04FF0F6
:101ED000FF360AEB4A00C000C0EB4011C1EB002006
:101EE000A5EB00152946404600F0B7FE08B10120D9
:101EF000B3E7701C38B12E443146404600F096FEE0
:101F000040B10120A9E73146404600F08FFE08B1FC
:101F10000120A2E75146404600F072FD00E0277024
:101F2000B9F1000F0BD0207800F05DFD20706078D3
:101F300000F059FD6070A07800F055FDA070002001
:101F40008BE7000070B5044600250CB9012070BD78
:101F5000607C20B900202074204600F05BF802204D
:101F60006074204600F060F918B10420607401200C
:101F7000EDE7204600F09FFD18B1042060740120B9
:101F8000E5E72068406820F0070021684860A06805
:101F900028B11F48006820F001001D4908601C4856
:101FA000001F006820F46070A16808431849091FE9
:101FB00008606068401C08B1656809E00120FFF70F
:101FC00067FA05461DB9042060740120BFE76D1E45
:101FD0002068806820F00F0040EA15402168886082
:101FE0002068C06865F30F002168C860204600F0D3
:101FF0007FFD18B1042060740120A8E70021E1737F
:1020000001216173A1730120607400209FE700002B
:10201000306C004038B504460B492068884212D124
:10202000FFF730FA00BF0948C06940F00060074977
:10203000C8610846C06900F00060009000BF00BFA2
:1020400001200349086038BD00280040001002400C
:102050003C0442422DE9F04704460D4690460026D6
:102060000027B14604B115B90120BDE8F08700BFD3
:10207000207C012801D10220F7E70120207400BF55
:1020800002206074B8F1000F06D1E978E173697835
:102090006173A978A1730BE0E87800F099FCE07314
:1020A000687800F095FC6073A87800F091FCA0734C
:1020B000A27B617BE07B00F077FD2073207B2870A2
:1020C000204600F057FD06464FF46160B6FBF0F97C
:1020D000B9F1180F2FD91820B9FBF0F000EB400030
:1020E000C000C0EB4011C1EB0020A6EB001631464A
:1020F000204600F0B2FD38B10420607400BF00201B
:10210000207400BF0120B0E7204600F027FD0746FD
:10211000781C80B1B7420ED20B480744394620469E
:1021200000F084FD38B10420607400BF00202074EA
:1021300000BF012099E70120607400BF00202074D7
:1021400000BF00BF91E70000805101002DE9F0477A
:1021500004460D4690460026002704B115B901201B
:10216000BDE8F08700BF207C012801D10220F7E7FD
:102170000120207400BF02206074B8F1000F0BD161
:1021800028784FF4616148436978C1EB011100EB95
:102190008100A978461812E0287800F019FC4FF465
:1021A000616100FB01F9687800F012FCC0EB0010DF
:1021B00009EB8009A87800F00BFC09EB000631461A
:1021C000204600F04AFD38B10420607400BF0020B2
:1021D000207400BF0120C3E72068406820F005009C
:1021E00021684860204600F0B9FC0746781C80B1A1
:1021F000B7420ED20B4807443946204600F016FD80
:1022000038B10420607400BF0020207400BF01209A
:10221000A6E70120607400BF0020207400BF00BF4B
:102220009EE700008051010070B5044600250CB9FE
:10223000012070BD2068406820F0080021684860D7
:10224000FFF724F8054607E0FFF720F8401BB0F53C
:102250007A7F01D90320ECE72068406800F008008D
:102260000028F1D00020E4E77047704710B504461D
:102270000CB9012010BD94F83D0028B9002084F865
:102280003C00204600F00CF8022084F83D00211D9F
:10229000206800F0B7FD012084F83D000020E9E748
:1022A000704701460868C06840F001000B68D860BC
:1022B0000868806800F00702062A05D008680068F0
:1022C00040F001000B68186000207047704710B59F
:1022D000044620680069C0F34000D8B12068C06897
:1022E000C0F34000B0B16FF0020021680861012026
:1022F00020772068806900F0030018B12046FFF7BE
:10230000E5FF05E0204600F0ADF8204600F0ABF810
:102310000020207720680069C0F38000D8B12068D1
:10232000C068C0F38000B0B16FF00400216808619C
:10233000022020772068806900F4407018B12046A0
:10234000FFF7C4FF05E0204600F08CF8204600F0BF
:102350008AF80020207720680069C0F3C000D8B157
:102360002068C068C0F3C000B0B16FF008002168F9
:102370000861042020772068C06900F0030018B1CC
:102380002046FFF7A3FF05E0204600F06BF820464B
:1023900000F069F80020207720680069C0F3001081
:1023A000D8B12068C068C0F30010B0B16FF0100061
:1023B00021680861082020772068C06900F4407017
:1023C00018B12046FFF782FF05E0204600F04AF8EA
:1023D000204600F048F8002020772068006900F0CF
:1023E000010058B12068C06800F0010030B16FF002
:1023F000010021680861204600F036F82068006975
:10240000C0F3C01058B12068C068C0F3C01030B12C
:102410006FF08000216808612046FFF725FF2068E3
:102420000069C0F3801058B12068C068C0F3801004
:1024300030B16FF0400021680861204600F020F8BC
:1024400020680069C0F3401058B12068C068C0F32C
:10245000401030B16FF02000216808612046FFF77E
:1024600004FF10BD7047704710B50446034920684B
:10247000884201D1FEF710FF10BD0000002C014082
:10248000704710B504460CB9012010BDA06900B119
:1024900000E000BF94F8390028B9002084F8380023
:1024A000204600F027F8242084F839002068C0680E
:1024B00020F400502168C860204600F0FDFC206830
:1024C000006920F49040216808612068406920F08C
:1024D0002A00216848612068C06840F400502168E3
:1024E000C8600020E063202084F8390084F83A00B6
:1024F0000020CAE710B586B0044600200290039081
:102500000490059037492068884236D100BF36488C
:10251000806940F48040344988610846806900F44D
:102520008040019000BF00BF00BF0846806940F0B6
:10253000080088610846806900F00800019000BF2B
:1025400000BF40200290022003900320059002A9C2
:102550002648FEF705FD802002900020039004909D
:1025600002A92248FEF7FCFC00BF2149486840F060
:10257000E06040F00400486032E01E492068884274
:102580002ED100BF1848C06940F480201649C861A8
:102590000846C06900F48020019000BF00BF00BF62
:1025A0000846806940F0080088610846806900F0AC
:1025B0000800019000BF00BF0815029002200390A0
:1025C0000320059002A90948FEF7CAFC4FF40060F9
:1025D000029000200390049002A90448FEF7C0FC7A
:1025E00006B010BD0038014000100240000C014050
:1025F00000000140004800402DE9F84304460D4624
:1026000016461F464FF0000994F83A00202860D182
:1026100005B116B90120BDE8F88300BF94F8380071
:10262000012801D10220F6E7012084F8380000BF1C
:102630000020E063222084F83A00FEF727FE81465E
:10264000A685E68539E0E08D401EE085A068B0F5FE
:10265000805F1BD14B46002220212046009700F0CE
:10266000FBFC08B10320D6E7A846206938B92068EA
:102670004068C0F30800A8F80000AD1C1DE0206809
:102680004068C0B2A8F800006D1C16E04B4600225E
:1026900020212046009700F0DFFC08B10320BAE7B4
:1026A000206920B92068406805F8010B05E0206822
:1026B000406800F07F0005F8010BE08D0028C2D1D2
:1026C000202084F83A0000BF002084F8380000BFC2
:1026D000A1E702209FE72DE9F84304460D46164680
:1026E0001F464FF0000994F8390020285CD105B14D
:1026F00016B90120BDE8F88300BF94F8380001281E
:1027000001D10220F6E7012084F8380000BF002044
:10271000E063212084F83900FEF7B8FD8146A684E5
:10272000E6842BE0E08C401EE084A068B0F5805F7A
:1027300016D14B46002280212046009700F08CFCE9
:1027400008B10320D6E7A846B8F80000C0F3080097
:1027500021684860206908B9AD1C0FE06D1C0DE0D0
:102760004B46002280212046009700F075FC08B1FE
:102770000320BFE715F8010B21684860E08C0028B2
:10278000D0D14B46002240212046009700F064FC47
:1027900008B10320AEE7202084F8390000BF0020F4
:1027A00084F8380000BFA5E70220A3E7FDF7AFFCDF
:1027B00000BFFEE70A49096801F0010171B108494B
:1027C0008039096801F0010141B100BF4FF060415B
:1027D00009680029FAD04FF060421070704700007D
:1027E000800E00E000B585B00020019002900390BB
:1027F000049000BF2F48806940F010002D49886187
:102800000846806900F01000009000BF00BF00BFC4
:102810000846806940F0200088610846806900F021
:102820002000009000BF00BF00BF0846806940F054
:10283000080088610846806900F00800009000BF29
:1028400000BF00BF0846806940F004008861084668
:10285000806900F00400009000BF00BF0122510316
:102860001548FEF70DFD00224FF480511348FEF786
:1028700007FD012251031148FEF702FD4FF40050FD
:10288000019001200290002003900220049001A9F1
:102890000948FEF765FB4FF440500190012002907B
:1028A000002003900220049001A90448FEF758FB81
:1028B00005B000BD0010024000100140000C0140B6
:1028C0001CB50020019000901748184908604FF08F
:1028D000FF304860002115488160FFF733FB08B1E5
:1028E000FEF728FB00208DF804008DF805008DF818
:1028F0000600002201A90D48FFF728FC08B1FEF7E9
:1029000019FB01208DF800008DF801008DF8020000
:1029100000208DF80300002269460448FFF79AFB67
:1029200008B1FEF707FB1CBD00280040D0000020C6
:1029300010B50B480B4908604FF416504860002151
:1029400008488160C1600161042141610021816109
:10295000C161FFF796FD08B1FEF7ECFA10BD00006B
:1029600000380140E400002010B50B480B49086016
:102970004FF4E1304860002108488160C160016186
:102980000C21416100218161C161FFF77AFD08B12D
:10299000FEF7D0FA10BD00000048004024010020DE
:1029A00000BFFEE77047000008B508490968C9087C
:1029B0004FF47A72B1FBF2F14143009100BF00BFC6
:1029C00000994A1E00920029F9D108BD1C00002080
:1029D000014600BF080900EB8000420001F00F0033
:1029E0001044C0B270470146002203E0521CA1F11E
:1029F0000A00C1B20A29F9D2100741EA10607047F3
:102A00002DE9F04706468846002700240025A14608
:102A1000F77B747BB57B00BF40E0012C0BD0032C0F
:102A200009D0052C07D0072C05D0082C03D00A2C80
:102A300001D00C2C0CD11F2D01D26D1C2CE00C2CC4
:102A400002D0641C012527E0012401257F1C23E01E
:102A5000042C05D0062C03D0092C01D00B2C06D158
:102A60001E2D01D26D1C17E0641C012514E0022C00
:102A700012D11C2D01D26D1C0EE01C2D08D1B8B254
:102A800000F053F808B16D1C06E0641C012503E05A
:102A90001D2D01D1641C012509F10109C145BCD3DB
:102AA000F7737473B573EAB2E1B2384600F07CF89C
:102AB0003073BDE8F08770B504460025FEF7E6FBED
:102AC000054607E0FEF7E2FB401BB0F57A7F01D92F
:102AD000032070BD2068406800F020000028F1D07D
:102AE0002068406840F01000216848600020F0E74E
:102AF00070B5044600252068406820F01000216869
:102B00004860FEF7C3FB054607E0FEF7BFFB401B2E
:102B1000B0F57A7F01D9032070BD2068406800F0CD
:102B200020000028F1D00020F6E7014601F0030064
:102B300008B1002070476420B1FBF0F200FB1210D6
:102B400008B10120F6E74FF4C870B1FBF0F200FBCA
:102B5000121008B90120EDE70020EBE70146002242
:102B600000230868006A82B20868406A83B243EAB8
:102B70000240704730B501460022002300240020A7
:102B80000D68AD69AAB20D68ED69ACB20D68AD69AA
:102B9000ABB29A4205D00D68ED6963F31F45284634
:102BA00001E044EA024030BDF0B504460B46002186
:102BB000002504F5FA61032B1BD2C3EBC30000EB25
:102BC00003100926B0FBF6F01044001D4618481EFD
:102BD00006EB90066427B0FBF7F0361A481EBF00DC
:102BE000B0FBF7F030440726B0FBF6F706FB1705FD
:102BF0001AE0C3EBC30000EB03100926B0FBF6F0AC
:102C00001044001D084400EB91006426B1FBF6F669
:102C1000801B4FF4C876B1FBF6F63044801E0726C1
:102C2000B0FBF6F706FB1705E8B2F0BD70B5044639
:102C30000D4600262046FFF73EFF08B101260AE0B8
:102C4000280C21680862A8B2216848622046FFF774
:102C50004FFF00B10126304670BD70B504460D46E9
:102C600000262046FFF727FF08B101260AE0280CBE
:102C700021688861A8B22168C8612046FFF738FF43
:102C800000B10126304670BD00BF00BF01F0E0FE7C
:102C90000028FBD100224FF400510748FEF7F0FA5C
:102CA0004FF4FA70FEF748F904A000F00DFA012085
:102CB00001F0D4F9E9E700000010014044617465B7
:102CC00020616E642074696D65207375636365733C
:102CD0007366756C6C7920736574210D0A000000B1
:102CE00010B500BF502080F31188BFF34F8FBFF3A2
:102CF0006F8F00BF02F04CFE18B14FF080500449B6
:102D0000086000BF002080F3118800BF10BD0000E4
:102D100004ED00E000B593B0282109A8FDF78DFA75
:102D2000142104A8FDF789FA002000900190029078
:102D30000390052009904FF480300A9000200B90FA
:102D400001200C900D9002201090C1031191C1043C
:102D5000129109A8FEF718FE08B1FEF7EBF80F2054
:102D6000049002200590002006904FF480600790A8
:102D700000200890012104A8FEF7AEFC08B1FEF780
:102D8000D9F801200090000201906846FEF70CFC83
:102D900008B1FEF7CFF813B000BD0000114800687D
:102DA00040F001000F490860084640680E4908409D
:102DB0000C494860084600680C4908400949086009
:102DC0000846006820F4802008600846406820F427
:102DD000FE0048604FF41F008860C8030449086083
:102DE00070470000001002400000FFF8FFFFF6FEF1
:102DF00008ED00E010B50248FFF769FA10BD0000C9
:102E0000B803002010B50268184B984208D0B0F102
:102E1000804F05D0164B984202D0164B984203D1F2
:102E200022F070024B681A43104B984208D0B0F160
:102E3000804F05D00E4B984202D00E4B984203D1E2
:102E400022F44072CB681A4322F080034C6943EAB3
:102E5000040202608B68C3620B688362034B984272
:102E600001D10B6903630123436110BD002C0140B4
:102E700000040040000800400FB410B5C2B045A8DF
:102E800001904FF4807102A8019B449A00F040F930
:102E900002A8FDF7F9F984B24FF0FF33224602A9E8
:102EA0000448FFF718FC0020019042B010BC5DF808
:102EB00014FB00002401002070B504462168096954
:102EC00021F44051E2681143226811612269A1682E
:102ED0001143626941EA02052168C96841F20C6246
:102EE000914329432268D1602168496921F44071E6
:102EF000A269114322685161564A2168914254D116
:102F0000FEF7E8FC00EBC00101EB001162689200E3
:102F1000B1FBF2F100EBC00202EB001263689B0010
:102F2000B2FBF3F26423B2FBF3F202EBC20303EB56
:102F30000212A1EB8201322202EB01116422B1FBE9
:102F4000F2F101F0F00100EBC00202EB0012636845
:102F50009B00B2FBF3F26423B2FBF3F201EB02122B
:102F600000EBC00101EB001163689B00B1FBF3F1C2
:102F700000EBC00303EB00136668B600B3FBF6F387
:102F80006426B3FBF6F303EBC30606EB0313A1EBD6
:102F90008301322303EB01116423B1FBF3F101F050
:102FA0000F0111442268916053E0FEF783FC00EBAF
:102FB000C00101EB001162689200B1FBF2F100EB7D
:102FC000C00202EB001263689B00B2FBF3F26423C1
:102FD000B2FBF3F202EBC20303EB0212A1EB82019C
:102FE000322202EB01116422B1FBF2F101F0F00197
:102FF00000EBC00202EB001263689B00B2FBF3F22D
:103000006423B2FBF3F201EB021200EBC00101EB0F
:10301000001163689B00B1FBF3F100EBC00303EB0D
:1030200000136668B600B3FBF6F36426B3FBF6F351
:1030300003EBC30606EB0313A1EB8301322303EB7F
:1030400001116423B1FBF3F101F00F011144226877
:10305000916070BD003801402DE9F04104460D46F5
:1030600017469846069E21E0701CF8B12EB1FEF777
:103070000DF9A0EB0800B04218D92068C06820F410
:10308000D0702168C8602068406920F00100216884
:103090004861202084F8390084F83A0000BF0020FD
:1030A00084F8380000BF0320BDE8F0812068006884
:1030B0002840A84201D1012000E00020B842D3D02E
:1030C0000020F1E700BFFEE70FB4054B10B503A9E0
:1030D000044A029800F038F910BC5DF814FB0000B7
:1030E000793B0008800000200FB4084B10B504A9FC
:1030F00002AA039800F028F9044602A9002000F073
:10310000C5FC204610BC5DF814FB00008D3A000899
:103110007CB5044600201D46164600290BD0491EEA
:10312000CDE90041044B6A462946304600F00CF9CF
:10313000009A002111707CBD773A000802480068AF
:10314000C0F30220704700000CED00E010B500282D
:1031500004DB0A07130E054A135406E00A07140E8F
:10316000034A00F00F031B1FD45410BD00E400E01D
:1031700018ED00E000487047880000200148006812
:10318000704700008800002002E008C8121F08C134
:10319000002AFAD170477047002001E001C1121FD8
:1031A000002AFBD170470000014908607047000009
:1031B000880000202DE9FF5F82B00021DDE90430A6
:1031C000020DDDF840B0034318D044F61050A2F2CF
:1031D000FF3242431514119801281FD0A5EB0B00B4
:1031E000401C5FEA000A4FF000064E4FDFF83891AE
:1031F000B046504615D5CAF1000413E011980124D9
:103200004AA3012801D16FEA0B010298119AC0E983
:103210000031C0E9024206B0BDE8F09FCBF10000EA
:10322000DFE704460021404A491842EB0450CDE94B
:10323000001012E0E00707D032463B4640464946C0
:10324000FDF757FB8046894632463B4610461946F5
:10325000FDF74FFB06460F466410002CEAD1DDE96E
:103260000401DDE90023BAF1000F06DAFDF741FBA6
:1032700042464B46FDF73DFB05E0FDF78AF8424626
:103280004B46FDF786F804460E460022284BFDF714
:10329000BBFB03D84FF0FF30014607E00022254B6F
:1032A00020463146FDF77EFAFDF795FB102409E034
:1032B000002C0ADB0A220023FDF728F9039B303299
:1032C0001A55641E50EA0102F2D1641C039AC4F13B
:1032D00011031444119A012A03D0012208430DD18D
:1032E0000AE0084304D000204FF0110B119072E760
:1032F000A3EB0B056D1E0DE05B4504DD4FF00002F6
:1033000005F1010504E003DA4FF00002A5F1010523
:10331000002AECD002981199C0E90231C0E90045B9
:1033200079E70000000014400000F03F300000008A
:103330000000F0430000E03F30380A2801D20120AD
:1033400070470020704700002DE9FF4F95B09B4665
:103350008946064600250FE2252877D10024274616
:10336000F84A0121059400E0044316F8013F203B90
:1033700001FA03F01042F7D130782A2811D06FF00B
:103380002F033078A0F13002092A16D8059A44F0AC
:10339000020402EB820203EB42021044761C059009
:1033A000EFE759F8042B0592002A03DA504244F45F
:1033B0000054059044F00204761C30782E2816D173
:1033C00016F8010F44F004042A280DD06FF02F02E4
:1033D0003078A0F13003092B09D807EB870302EB03
:1033E0004303C718761CF3E759F8047B761C307842
:1033F0006C280FD006DC4C2817D068280DD06A281E
:1034000014D104E0742810D07A280FD10DE044F4D0
:1034100000140AE044F4801401E044F4401472788B
:10342000824202D104F58014761C761C307866281E
:103430000BD013DC582877D009DC002875D045283C
:10344000F6D04628F4D047281AD19DE118E0632829
:1034500035D0642879D0652812D195E1702873D0D1
:1034600008DC6728F1D069286FD06E280DD06F284E
:1034700006D1B5E073282CD0752875D0782874D083
:103480005A46179990476D1C75E1C4F30250022803
:1034900009D003280DD0D9F8001004280DD00D60F4
:1034A00009F1040967E1D9F80010EA17C1E90052EF
:1034B000F6E7D9F800100D80F2E70D70F0E719F883
:1034C000041B8DF8001000208DF80100EA46012051
:1034D00003E059F804AB4FF0FF3061074FF00001F3
:1034E00002D40DE008F101018846B9420FDA8045A7
:1034F000F8DB1AF808100029F4D108E008F10101FE
:1035000088468142FADB1AF808100029F6D105989E
:103510005B46A0EB080721463846179A00F094FA5C
:10352000284400EB080507E04DE029E10DE01AF81A
:10353000010B5A4617999047B8F10108F7D25B463C
:1035400021463846179A13E142E00A220092C4F35A
:1035500002524FF0000A022A08D059F804CB032A7D
:103560004FEAEC710AD00DE029E02AE009F10701E9
:1035700021F00702F2E802C1914609E00FFA8CFC43
:103580004FEAEC71042A03D14FFA8CFC4FEAEC713C
:10359000002907DA0A460021DCF1000C61EB020188
:1035A0002D2202E0220504D52B228DF804200122D1
:1035B00003E0E20701D02022F7E7904659E00A2114
:1035C00002E010220DE010214FF0000A00910BE004
:1035D00010224FF0000A44F004040827009203E090
:1035E00008224FF0000A0092C4F30252022A05D0CA
:1035F00059F804CB0021032A08D009E009F107019A
:1036000021F00702F2E802C1914605E01FFA8CFCA6
:10361000042A01D10CF0FF0C4FF00008220728D536
:10362000702806D0009B83F0100353EA0A0305D0EC
:103630000EE040228DF80420012208E05CEA01023D
:1036400006D030228DF804208DF805000222904625
:10365000009B83F0080353EA0A030AD15CEA0102E3
:1036600001D1620705D530228DF804204FF0010802
:103670007F1E582804D034A003900EA802900DE0BD
:1036800036A0F9E753466046009AFCF73FFF8446B0
:103690000398825C0298401E029002705CEA01006E
:1036A000F0D1029806A9081A00F1200A600702D595
:1036B00024F4803400E00127574502DDA7EB0A001F
:1036C00000E0002000EB0A01009005984144401AF8
:1036D0000590E00306D45B462146179A059800F052
:1036E000B3F90544002706E001A85A46C05D1799C2
:1036F00090476D1C7F1C4745F6DBE0030CD55B460D
:103700002146179A059800F09FF9054404E03020FF
:103710005A46179990476D1C0099481E0090002941
:10372000F5DC08E0029802995A460078491C02919B
:10373000179990476D1CBAF10001AAF1010AF1DC5A
:1037400065E1000009280100303132333435363765
:1037500038396162636465660000000030313233DD
:10376000343536373839414243444546000000007D
:1037700000F058F90544761C307800287FF4ECAD51
:1037800019B02846BDE8F08F620700D4062709F17A
:10379000070222F0070CFCE80223E14603F0004890
:1037A0005FEA080C02D00FF2702C0DE05FEA045CB7
:1037B00002D50FF2682C07E05FEAC47C02D00FF25A
:1037C000602C01E0AFF2700C4FF0FF3823F00043A3
:1037D000CDF850C065280CD006DC452809D0462815
:1037E0001DD047283DD13DE0662818D067287ED1FE
:1037F00038E00021112F01DB112000E0781CCDE919
:10380000000106A90EA8FFF7D5FCDDE90F010E9A0D
:1038100003910021009207F1010A04914DE04FF05D
:1038200000400097CDE9011006A90EA8FFF7C2FCE1
:10383000DDE90F0203920E9B11990022DDF80CA026
:103840000093049211B9791C00EB010AB7EB0A004E
:1038500004D4C0F1FF3007F1010A0490AAEB07007D
:10386000019044E0012F00DA01270021112F01DD32
:10387000112000E03846CDE9000106A90EA8FFF7A7
:1038800099FCDDE90F010E9A039100210491009249
:10389000BA4621070CD40399514500DA8A46BAF199
:1038A000010F05DD009AAAF10101515C302908D011
:1038B000B84202DA10F1040F06DA0121CDE9011055
:1038C00015E0AAF10101E9E7002805DC04990144AB
:1038D0000491AAEB000102E0411C514500DD8A463B
:1038E0000499401A401C01904FF0004002902007BC
:1038F00004D40198504501DBCDF8048000208DF8F8
:103900004F0002980DF14F07B0F1004F25D02B204A
:103910000E9002984FF0020800280CDA4042029004
:103920002D200E9007E00A210298FCF7D9FD3031D6
:10393000029007F8011DB8F10001A8F10108F2DCBE
:1039400002980028EFD1791E0E980870307800F0A8
:10395000200040F0450007F8020D12A8C01B00F13E
:1039600007081498007800B1012000EB0A010198C3
:1039700001EBE07105984144401A401E0590E003B8
:1039800006D45B462146179A059800F05DF8054479
:103990001498007818B15A46179990476D1CE003A7
:1039A00024D55B462146179A059800F04DF805444A
:1039B0001CE00498002807DBDDE90301884203DDF1
:1039C0000098405C179901E0179930205A469047BB
:1039D000049805F10105401C04900198401E0190D7
:1039E00004D12E205A46179990476D1CBAF1000158
:1039F000AAF1010ADDDC05E017F8010B5A46179918
:103A000090476D1CB8F10001A8F10108F4DC5B4699
:103A10002146179A0598ABE62D0000002B00000008
:103A2000200000002DE9F041044600251E461746FF
:103A3000880404D405E039462020B0476D1C641E7C
:103A4000F9D52846BDE8F0812DE9F041044600256E
:103A50001E469046C80301D5302700E02027880481
:103A600004D505E041463846B0476D1C641EF9D5C3
:103A70002846BDE8F0814A68002A06D00A68531C2F
:103A80000B6010704868401E486070470A68531CFD
:103A90000B601070704730B583B00446FFF76EFBC3
:103AA00005460020CDE90000024621466846FCF7A5
:103AB0007AFD2846FFF778FBDDE9000103B030BD51
:103AC00070B504460D4612E000224FF4005109483B
:103AD000FDF7D6FB2846FDF72FFA012251030548D2
:103AE000FDF7CEFB2846FDF727FA601EC4B2002C76
:103AF000EADC70BD0010014010B500224FF4005107
:103B00000E48FDF7BDFB3220FDF716FA01225103E6
:103B10000A48FDF7B5FB4FF4FA70FDF70DFA08A05F
:103B2000FFF7AAF908A0FFF7A7F900BF00F090FF80
:103B30000028FBD107A0FFF7C7FA10BD000C014019
:103B4000415445300D00000041542B434C54533D2B
:103B5000310D00004461746520616E642074696DEC
:103B600065207375636365737366756C6C79207318
:103B70006574210D0A00000070B505460C46084822
:103B8000844203D1284601F06BF870BD0548844299
:103B900003D1284601F05EF8F7E74FF0FF30F4E775
:103BA000800000208400002000B587B0002206A914
:103BB0000F48FEF744F9002205A90D48FEF716F953
:103BC0009DF81A009DF819109DF818209DF81630E0
:103BD000CDE90032CDE902109DF815309DF817208F
:103BE00004A10C48FFF780FA0A4807B000BD0000A6
:103BF000D00000203230252E32642E252E32642E45
:103C0000252E326420252E32643A252E32643A2540
:103C10002E326400BC0000200E48006801F01EFA3D
:103C2000012251030C48FDF72BFB00BF00BF00F041
:103C300037F90446002CFAD000231A4621460748DB
:103C4000006801F039FC06A0FFF73EFA012000F001
:103C500005FAEBE700000020001001400C000020F6
:103C6000436F6F7264696E617465732073656E74FF
:103C700020746F20746865207175657565204F4BE1
:103C8000210D0A002DE9F84F044625686668A768EB
:103C9000D4F80C80D4F81090D4F814A0D4F818B04C
:103CA000E069009020A0FFF70FFA294624A0FFF753
:103CB0000BFA314625A0FFF707FA394626A0FFF791
:103CC00003FA414627A0FFF7FFF9494628A0FFF76E
:103CD000FBF9514629A0FFF7F7F959462AA0FFF74B
:103CE000F3F92CA00099FFF7EFF92D4801682DA0FA
:103CF000FFF7EAF92A48103801682DA0FFF7E4F928
:103D000027480C3801682DA0FFF7DEF92448083851
:103D100001682DA0FFF7D8F92148001D01682DA0EA
:103D2000FFF7D2F9BDE8F88F5B48617264206661E5
:103D3000756C742068616E646C65725D0A000000C9
:103D40005230203D2025780A000000005231203DED
:103D50002025780A000000005232203D2025780AF4
:103D6000000000005233203D2025780A00000000AA
:103D7000523132203D2025780A0000004C52203D6F
:103D80002025780A000000005043203D2025780AB5
:103D900000000000505352203D2025780A0000000A
:103DA00038ED00E042464152203D2025780A0000CF
:103DB00043465352203D2025780A0000484653527E
:103DC000203D2025780A000044465352203D2025FE
:103DD000780A000041465352203D2025780A000011
:103DE0009EB022A419A92046FCF78AF9FDF760FAD3
:103DF000FEF790FFFEF7F6FCFEF79AFDFEF7B4FD26
:103E0000FEF75EFD1D4B0FCBCDE91723CDE9150164
:103E1000002115A800F033F9194908601C22174940
:103E200010310EA8FCF7F0F900210EA800F03BF9C4
:103E3000144908601C2211492C3107A8FCF7E4F949
:103E4000002107A800F02FF90F4908601C220B4938
:103E500048316846FCF7D8F90021684600F023F99C
:103E60000A49086000F006F900BFFEE748656C6C7F
:103E70006F20776F726C6421000000003C5D0008C9
:103E80000C0000200000002004000020080000209A
:103E900001460020842901D0CA1C1044704700004C
:103EA0002DE9F04792B0002500240026A146A24645
:103EB00000BF4FF0FF33012204A95C48FEF79CFBD2
:103EC00001225BA104A8FCF7F0F90028F1D1431E00
:103ED00005220DF111015548FEF78EFB062255A172
:103EE00004A8FCF7E2F900287ED1431E32220DF12E
:103EF00016014E48FEF780FB3222412104A8FCF750
:103F0000CAF90546002D6FD032224E2104A8FCF7D5
:103F1000C2F904463222452104A8FCF7BCF9064642
:103F2000A54261D2B4427FD2601BC21EA91C434885
:103F3000FCF76AF9301B821EA11C40480B30FCF7CD
:103F400063F907222E213D48FCF7A5F90446072214
:103F50002E213A480B30FCF79EF90646A01EFFF7CB
:103F60009AFD0022364BCDE90201FCF712FA074612
:103F7000FCF79AFA8146B01EFFF78DFD0746002236
:103F80002F4BFCF706FACDE90201FCF78DFA8246C9
:103F90002A48FCF799F9642190FBF1F84046FCF7B8
:103FA00067FA07464946FCF79CF9814623480B30DF
:103FB000FCF78AF9642190FBF1F84046FCF758FAC7
:103FC00007465146FCF78DF982464846FCF759FAF8
:103FD00007463A460B461BA11848FFF785F850469E
:103FE000FCF74FFA074600E01EE03A460B4615A1E3
:103FF00012480B30FFF778F84846FCF742FA0746BC
:1040000088465046FCF73DFA02460B46CDE900785B
:10401000CDE902010DA109481630FFF765F8074800
:10402000163012B0BDE8F0870020FAE7E400002067
:1040300024000000244750524D4300008C00002013
:1040400000004E40252E336600000000252E366607
:104050002C20252E36662C300000000070B504465A
:1040600025460DB1294600E00121084600F0FAFE80
:10407000002070BD10B500F099FF002010BDF8B50C
:1040800004460D46A06840B1E06830B100200090C1
:1040900094E80F0001F055F9F8BD0022D4E90001C1
:1040A00001F020F9F8E77FB504460D46606998B144
:1040B000A06988B1B4F90800FFF7EAFE0646D4E922
:1040C0000510CDE9006102902B462269D4E9001069
:1040D00001F0F2FB039013E0B4F90800FFF7D8FEFB
:1040E000064603A8CDE90060238A9AB22B46D4E99C
:1040F000001001F0AFFB012802D0002004B070BD19
:104100000398FBE72DE9F04105460E461C48076879
:104110001C480068001D00F0A9FD50B9194800684E
:1041200090F82C10012088401749096881431648EF
:104130000160681C38B936B112480168091D13487E
:1041400000F0DEFD1AE07C190E4800684460BC42B5
:1041500007D20C480168091D0D48006800F0B6FD43
:104160000CE008480168091D0A48006800F0AEFD2F
:1041700009480068844201D207480460BDE8F08124
:10418000340000202000002038000020D40400204B
:1041900028000020240000205000002010B5044614
:1041A00000F0BAFD23480068401C224908602248FC
:1041B000006840B9204804600846006801280DD115
:1041C00000F0A0F90AE01D48006838B91A480068F4
:1041D000C06AE16A884201D817480460184800683C
:1041E000401C1749086094F82C100120884015499C
:1041F0000968084313490860E16A01EB8101124A2A
:1042000002EB8100211D00F07BFD00F0AFFD0B48AB
:10421000006868B108480068C06AE16A884207D24D
:104220004FF0805009490860BFF34F8FBFF36F8F85
:1042300010BD000030000020200000203C000020C5
:104240004C00002038000020F803002004ED00E0BE
:1042500010B516E000F060FD0C48C068C468201D71
:1042600000F004FD0A480068401E0949086009483A
:104270000068401E0749086000F078FD204600F005
:104280005EF8044800680028E4D110BDC004002096
:10429000300000202C00002070B504460D46206C34
:1042A00070B1216CE0680844E0606168E0688842B1
:1042B00001D32068E0602846226CE168FBF7A4FF88
:1042C00070BD2DE9F04104460F4615464FF0000839
:1042D000A66B206C40B9206860BB606801F0FCFBF5
:1042E00080460020606025E07DB93946226CA068D8
:1042F000FBF78AFF216CA0680844A060D4E9011094
:10430000884217D32068A06014E03946226CE06828
:10431000FBF77AFF216CE068401AE0602168E068F2
:10432000884203D2216C6068401AE060022D01D1FE
:1043300006B1761E701CA0634046BDE8F08110B542
:10434000044694F8510030B9206B00F02DFD204652
:1043500000F02AFD1AE094F85100012803D120460C
:1043600000F022FD12E094F85100022801D1012052
:1043700000E0002050B900BF502080F31188BFF347
:104380004F8FBFF36F8F00BF00BFFEE710BD00006F
:1043900030B542F21073174800F007042CB1C01D6D
:1043A00020F00700134C041B1B1B0246124C22601A
:1043B0000024114D6C60D018083820F007000F4C15
:1043C000206000240D4D2D686C600C4D2D682C6014
:1043D0001146441A4C60094C24680C60084D4C6826
:1043E0002C60084D4C682C604FF00044064D2C604A
:1043F00030BD0000E80400205C00002064000020C4
:104400006C000020680000207000002000BFFFF753
:104410001FFF064800680128F9D94FF08050044971
:104420000860BFF34F8FBFF36F8FF0E7F8030020F2
:1044300004ED00E02DE9F04106460D46174698468A
:10444000069C0DB9246000E02760E6632564012125
:10445000204600F0E5FFBDE8F0812DE9FF5F8146D1
:104460000F469246DDE90E6B109CAAF10100216B0C
:1044700001EB800828F0070808F0070008B90120C0
:1044800000E0002050B900BF502080F31188BFF336
:104490004F8FBFF36F8F00BF00BFFEE7002507E01F
:1044A000795D04F134004155785D00B902E06D1C7E
:1044B000102DF5D300BF002143200155072E00D356
:1044C0000626E66266640020A064201D00F0FBFB67
:1044D00004F1180000F0F7FB2461C6F10700A061A9
:1044E00064620020E06484F8500049464046039A24
:1044F00000F0D0F92060BBF1000F01D0CBF80040F4
:10450000BDE8FF9F10B5002407E004EB84010F4ACB
:1045100002EB810000F0CAFB641C072CF5D30C48A9
:1045200000F0C4FB0B4800F0C1FB0B4800F0BEFBE1
:104530000A4800F0BBFB0A4800F0B8FB04480949F0
:10454000086004480849086010BD0000F803002016
:104550008404002098040020AC040020C004002043
:10456000D4040020240000202800002010B50146BB
:10457000164800E0006803688B42FBD3024643689C
:1045800013448B4204D143684C6823444360014682
:104590000A464B6813440468A34211D10C4C0368CB
:1045A0002468A34208D04B680468646823444B60C5
:1045B00003681B680B6005E0054B1B680B6001E09E
:1045C00003680B60884200D0016010BD5C000020D1
:1045D0006400002070B5054600F09EFBA86B08B98A
:1045E000012400E0002400F0C1FB204670BD70B53E
:1045F000054600F091FBA86BE96B884201D10124CC
:1046000000E0002400F0B2FB204670BD0A490968B2
:10461000096809B9012100E0002121B14FF0FF3103
:10462000064A116006E004490968C968C868034A77
:1046300041681160704700002400002050000020F5
:104640000E480068401C08B9012000E0002050B965
:1046500000BF502080F31188BFF34F8FBFF36F8FDF
:1046600000BF00BFFEE700BF502080F31188BFF3FA
:104670004F8FBFF36F8F00BF00BFFEE774000020B5
:1046800010B502460020114652B900BF502383F3F3
:104690001188BFF34F8FBFF36F8F00BF00BFFEE7DE
:1046A0000B4C4B69A34201D1012300E0002373B1FD
:1046B000084C8B6AA34201D1012300E0002333B9E7
:1046C0008B6A0BB9012300E0002303B1012010BD68
:1046D000D4040020AC04002070B5044600F01CFB9C
:1046E00094F9455010E0606A08B9012000E000200C
:1046F00038B904F1240001F053FA18B100F0ECFBD2
:1047000000E003E0681E45B2002DECDC00BFFF2096
:1047100084F8450000F02AFB00F0FEFA94F94450BA
:1047200010E0206908B9012000E0002048B904F138
:10473000100001F035FA08B100F0CEFB681E45B25A
:1047400000E001E0002DECDC00BFFF2084F8440015
:1047500000F00CFB70BD00002DE9F04104464FF065
:10476000000800F0F5FC4648006808B9FFF710FEA5
:1047700044480068204000286BD1D4B1083404F0CC
:104780000700B0B104F00700C0F10800044404F0D1
:10479000070008B9012000E0002050B900BF5020F8
:1047A00080F31188BFF34F8FBFF36F8F00BF00BF3F
:1047B000FEE7002C4DD034480068844249D8334E7F
:1047C0003046056801E02E462D686868A04202D296
:1047D00028680028F7D12A480068854239D0306817
:1047E00000F10808286830606868001B102819D993
:1047F0002F1907F0070008B9012000E0002050B988
:1048000000BF502080F31188BFF34F8FBFF36F8F2D
:1048100000BF00BFFEE76868001B78606C60384628
:10482000FFF7A4FE184968680968081A1649086065
:104830000846006816490968884203D21248006891
:10484000134908600F4968680968084368600020D8
:10485000286001F0F1F908F0070008B9012000E034
:10486000002050B900BF502080F31188BFF34F8F54
:10487000BFF36F8F00BF00BFFEE74046BDE8F08189
:104880006400002070000020680000205C00002010
:104890006C000020001F4FF080730360001F21F0A8
:1048A00001030360001F034B0360143802602038CB
:1048B000704700004146000870B58AB004460025E4
:1048C00023A0FEF7D9FA2AA0FEF7D6FA32A0FEF707
:1048D000D3FA35A0FEF7D0FA37A0FEF7CDFAFFF7EE
:1048E00063F90646324621463948FEF7C5FA4FF4C9
:1048F000FA63282269463748FDF77EFE36A0FEF7A8
:10490000BBFA4FF4FA63282269463248FDF774FE79
:1049100036A0FEF7B1FA39A0FEF7AEFA2B216846B1
:10492000FBF7A8FC054645B1122238A12846FBF743
:10493000BCFC10B901200AB070BD122238A1284673
:10494000FBF7B3FC10B93BA0FEF7BEFB0020F2E77B
:1049500041542B53415042523D332C312C22434F72
:104960004E54595045222C2247505253220D0000DC
:1049700041542B53415042523D332C312C22415053
:104980004E222C22696E7465726E65742E74656C8D
:1049900065322E7275220D0041542B534150425204
:1049A0003D312C310D00000041542B4854545049E6
:1049B0004E49540D0000000041542B4854545050AF
:1049C0004152413D22434944222C310D0000000058
:1049D000405E00082401002041542B4854545041AB
:1049E0004354494F4E3D300D0000000041542B48C8
:1049F0005454505445524D0D0000000041542B5367
:104A0000415042523D302C310D0000002B4854548F
:104A100050414354494F4E3A20302C323030000040
:104A20002B48545450414354494F4E3A20302C3374
:104A300030370000CFEEF0E020EEEFEBE0F2E8F2EE
:104A4000FC20E8EDF2E5F0EDE5F20D0A00000000D3
:104A500030B58BB0002400200290019032A0FEF708
:104A60000BFA32A0FEF708FA32A0FEF705FA34A0DE
:104A7000FEF702FAC8231E2203A93448FDF7BCFD45
:104A800033A103A8FBF7E4FB04462046FBF7FCFB3D
:104A90000546294630A0FEF717FB2046FBF7F4FB3E
:104AA0001B2831D908342046FBF70EFCC0B28DF824
:104AB0000700E01CFBF708FCC0B28DF80500A01D44
:104AC000FBF702FCC0B28DF8060004F10900FBF709
:104AD000FBFBC0B28DF8080004F10C00FBF7F4FBFF
:104AE000C0B28DF8090004F10F00FBF7EDFBC0B276
:104AF0008DF80A00002201A91C48FDF7ABFA00223C
:104B000002A91A48FDF722FB03A919A0FEF7DCFA57
:104B10009DF80700042802D09DF8070010B9012075
:104B20000BB030BD0020FBE741540D00415445302F
:104B30000D00000041542B434C54533D310D0000F7
:104B400041542B43434C4B3F0D00000024010020F7
:104B50002B43434C4B3A00007374726C656E2070AB
:104B6000446174613D2025640D0A0000D0000020DE
:104B7000252E3238730D0A0086B0002400BF1B4872
:104B8000006800F06BFA1A480068002828D000225C
:104B900069461748006800F063FD002820D0684689
:104BA000FFF78AFE48B113A0FEF78EFA00244FF4F7
:104BB00096710220FEF784FF0EE0601CC4B221460D
:104BC00017A0FEF781FA052C06DDFEF795FF0024FD
:104BD00064210620FEF774FF4FF4FA60FCF7ACF98D
:104BE0000248006800F09AF9C9E7000004000020BC
:104BF0000C0000204D6573736167652064656C6906
:104C0000766572656420746F20612072656D6F74C3
:104C1000652053514C204F4B210D0A0D0A00000016
:104C20004D657373616765204E4F542064656C69F0
:104C300076657265642C20464F554C54210D0A66EA
:104C40006F756C745F636F756E746E65723D25640D
:104C50000D0A000000B503461846FDF7ABFD00BD88
:104C600000B503461846FDF7A5FD00BD01460A69DB
:104C7000D1E901309860D1E9010358605068884259
:104C800001D188685060002008611068401E1060E3
:104C900010687047034B0360034B0B608023136065
:104CA0007047000064010020B801002000F10801F5
:104CB00041604FF0FF31816000F10801C160016186
:104CC00000210160704700210161704710B5024664
:104CD0000B685C1C0CB9106907E002F1080000E0E9
:104CE0004068446824689C42FAD944684C604C6827
:104CF000A160886041600A611468641C146010BD82
:104D000042684A6093688B6093685960916008615B
:104D100003685B1C0360704700BF502080F311885C
:104D2000BFF34F8FBFF36F8F00BF0E480068401C6A
:104D30000C49086008460068012812D10A4800683A
:104D4000C0B208B9012000E0002050B900BF5020D7
:104D500080F31188BFF34F8FBFF36F8F00BF00BF89
:104D6000FEE770477400002004ED00E00D48006885
:104D700050B900BF502080F31188BFF34F8FBFF3AD
:104D80006F8F00BF00BFFEE706480068401E054960
:104D900008600846006820B9002080F3118800BF31
:104DA00000BF70477400002070B506463546002EDF
:104DB0003FD0083D2C461F4960680968084008B18B
:104DC000012000E0002050B900BF502080F311887E
:104DD000BFF34F8FBFF36F8F00BF00BFFEE72068A8
:104DE00008B9012000E0002050B900BF502080F336
:104DF0001188BFF34F8FBFF36F8F00BF00BFFEE777
:104E00000C4960680968084098B1206888B9094968
:104E1000606809688843606000F09AF90649606834
:104E200009680844044908602046FFF79FFB00F02A
:104E300003FF70BD700000206800002000204FF0CC
:104E4000E02108618861064800684FF47A71B0FB80
:104E5000F1F0401E4FF0E0214861072008617047E3
:104E60001C00002070B504460025D4B1124800682B
:104E700008B9012000E0002050B900BF502080F3A5
:104E80001188BFF34F8FBFF36F8F00BF00BFFEE7E6
:104E900000F05EF900212046FFF734F900F0CCFE67
:104EA00005463DB94FF0805004490860BFF34F8F6D
:104EB000BFF36F8F70BD00005800002004ED00E0CC
:104EC00003490968016003490968416070470000AF
:104ED000480000203400002001200149086070478C
:104EE0004400002070B504460D4654B900BF502060
:104EF00080F31188BFF34F8FBFF36F8F00BF00BFE8
:104F0000FEE70548016818312046FFF7DFFE012162
:104F10002846FFF7F7F870BD2000002070B5054661
:104F20002C4655B900BF502080F31188BFF34F8F36
:104F3000BFF36F8F00BF00BFFEE774B31748006870
:104F400084422AD0FFF7E8FE2046FFF799FB10B312
:104F5000201DFFF78BFE94F82C100120884010498B
:104F6000096808430E490860E16A01EB81010D4AB6
:104F700002EB8100211DFFF7C3FE0849E06A0968C2
:104F8000C96A884207D34FF0805007490860BFF3D1
:104F90004F8FBFF36F8FFFF7E9FE70BD2000002039
:104FA00038000020F803002004ED00E010B586B0C2
:104FB00000200590049003AA04A905A8FFF76AFE43
:104FC0000022DDE904101346CDE9002102901CA166
:104FD0001D48039A00F070FC1C49086008460068F0
:104FE00008B1012400E00024012C15D100BF50209D
:104FF00080F31188BFF34F8FBFF36F8F00BF4FF067
:10500000FF3013490860012012490860002012494E
:10501000086000F0EBF810E0601C08B1012000E02F
:10502000002050B900BF502080F31188BFF34F8F8C
:10503000BFF36F8F00BF00BFFEE706B010BD0000DA
:1050400049444C45000000000D4400085400002075
:10505000500000203C0000203400002070B50546C0
:10506000FFF75AFE15B93248006800E028460446AA
:10507000201DFFF7FBFD78B9E06A00EB80002D49A9
:1050800051F8200040B994F82C10012088402A499A
:105090000968814328480160A06A18B104F118002A
:1050A000FFF7E4FD211D2548FFF72AFE94F8500084
:1050B000012802D1002084F85000FFF757FE204855
:1050C000006828B1FFF728FEFFF7A0FAFFF74EFEB1
:1050D00017480068844229D119480068D0B119489E
:1050E000006808B9012000E0002050B900BF50203E
:1050F00080F31188BFF34F8FBFF36F8F00BF00BFE6
:10510000FEE74FF0805010490860BFF34F8FBFF3A8
:105110006F8F0BE0094800680C490968884203D189
:1051200000200349086001E000F01AF870BD00009B
:1051300020000020F803002038000020D4040020C4
:105140003C0000205800002004ED00E0300000206A
:1051500002480068401C0149086070475800002060
:105160001D48006818B101201C49086032E0002089
:105170001A4908601A480068B0FA80F0C0F11F01AF
:1051800001EB8100174A52F8200008B1012000E02D
:10519000002050B900BF502080F31188BFF34F8F1B
:1051A000BFF36F8F00BF00BFFEE701EB81020D4B25
:1051B00003EB820042685268426000F108024368D3
:1051C000934202D14268526842604268D268064BFC
:1051D0001A6000BF70470000580000204400002003
:1051E00038000020F8030020200000201CB53849BA
:1051F000084600780190FF200A46107008460078A3
:1052000000909DF8000000F0F0009DF80020904212
:1052100001D1012000E0002050B900BF502080F3F0
:105220001188BFF34F8FBFF36F8F00BF00BFFEE742
:105230009DF8000000F05000264A10700720264A12
:10524000106009E024480068401E234A10609DF861
:1052500000004006000E00909DF8000000F0800065
:105260008028EFD01C480068C0F10700042801D155
:10527000012000E0002050B900BF502080F31188C9
:10528000BFF34F8FBFF36F8F00BF00BFFEE7124821
:1052900000680002104A10601046008800F4E060C8
:1052A00010600B4A019810700C48006840F47000C0
:1052B0000A4908600846006840F070400860FFF73F
:1052C000BDFD002006490860FAF742FF00201CBD22
:1052D00000E400E0780000207C00002020ED00E0E9
:1052E000740000202DE9F84305460E4690460DB1A6
:1052F000012000E0002050B900BF502080F3118849
:10530000BFF34F8FBFF36F8F00BF00BFFEE70EB933
:10531000002701E005FB06F707F14800FFF71CFA3C
:1053200004465CB104F14809002084F84600434675
:105330004A46314628460094FFF77CF82046BDE8EF
:10534000F8832DE9F84380460E4617461D46DDF8E2
:105350002090B8F1000F01D0012000E0002050B9EA
:1053600000BF502080F31188BFF34F8FBFF36F8FC2
:1053700000BF00BFFEE70DB1012000E0002050B9E2
:1053800000BF502080F31188BFF34F8FBFF36F8FA2
:1053900000BF00BFFEE707B10EB1012000E0002012
:1053A00050B900BF502080F31188BFF34F8FBFF377
:1053B0006F8F00BF00BFFEE707B90EB9012000E004
:1053C000002050B900BF502080F31188BFF34F8FE9
:1053D000BFF36F8F00BF00BFFEE74820009000982A
:1053E000482801D1012000E0002050B900BF502022
:1053F00080F31188BFF34F8FBFF36F8F00BF00BFE3
:10540000FEE72C464CB1012084F846004B463A4654
:10541000314640460094FFF70DF82046BDE8F8837A
:1054200070B505460E462C4654B900BF502080F397
:105430001188BFF34F8FBFF36F8F00BF00BFFEE730
:10544000FFF76AFCD4E90F12206801FB02006060DC
:105450000020A0632068A060E06B401E226C2168E1
:1054600000FB0210E060FF2084F8440084F845004F
:105470009EB9206908B9012000E00020A8B904F114
:10548000100000F08DFB80B14FF08050094908609A
:10549000BFF34F8FBFF36F8F07E004F11000FFF7EA
:1054A00005FC04F12400FFF701FCFFF75FFC01207D
:1054B00070BD000004ED00E02DE9FF4383B0064617
:1054C00088461D464FF00009344654B900BF5020AD
:1054D00080F31188BFF34F8FBFF36F8F00BF00BF02
:1054E000FEE7B8F1000F01D1206C08B9012000E0FF
:1054F000002050B900BF502080F31188BFF34F8FB8
:10550000BFF36F8F00BF00BFFEE7022D02D1E06B3B
:10551000012801D1012000E0002050B900BF502037
:1055200080F31188BFF34F8FBFF36F8F00BF00BFB1
:10553000FEE700F01DFA08B9059808B9012000E05F
:10554000002050B900BF502080F31188BFF34F8F67
:10555000BFF36F8F00BF00BFFEE700BFFFF7DCFBAC
:10556000A06BE16B884201D3022D28D12A46414627
:105570002046FEF7A6FE0746606A08B9012000E053
:10558000002068B904F1240000F00AFB88B14FF054
:10559000805032490860BFF34F8FBFF36F8F08E030
:1055A0003FB14FF080502D490860BFF34F8FBFF3DC
:1055B0006F8FFFF7DBFB012007B0BDE8F083059894
:1055C00018B9FFF7D3FB0020F6E7B9F1000F04D1BB
:1055D00001A8FFF775FC4FF00109FFF7C7FBFFF7C4
:1055E000B7FDFFF799FB94F94400401C10B9002067
:1055F00084F8440094F94500401C10B9002084F858
:105600004500FFF7B3FB05A901A800F0DDF8F0B9EC
:105610002046FEF7ECFFA0B104F110000599FFF75A
:1056200061FC2046FFF758F800F006FB002895D1F2
:105630004FF0805009490860BFF34F8FBFF36F8F61
:105640008CE72046FFF748F800F0F6FA86E7204698
:10565000FFF742F800F0F0FA0020ADE704ED00E0BB
:105660002DE9F74183B005460E464FF000082C4661
:1056700054B900BF502080F31188BFF34F8FBFF3A0
:105680006F8F00BF00BFFEE70EB9206C08B9012084
:1056900000E0002050B900BF502080F31188BFF314
:1056A0004F8FBFF36F8F00BF00BFFEE700F060F9C0
:1056B00008B9059808B9012000E0002050B900BFE2
:1056C000502080F31188BFF34F8FBFF36F8F00BF5F
:1056D00000BFFEE700BFFFF71FFBA76BF7B1314626
:1056E0002046FEF7D9FD781EA063206908B9012085
:1056F00000E0002060B904F1100000F051FA38B168
:105700004FF080502F490860BFF34F8FBFF36F8F6A
:10571000FFF72CFB012006B0BDE8F081059818B911
:10572000FFF724FB0020F6E7B8F1000F04D101A831
:10573000FFF7C6FB4FF00108FFF718FBFFF708FD66
:10574000FFF7EAFA94F94400401C10B9002084F8ED
:10575000440094F94500401C10B9002084F845002D
:10576000FFF704FB05A901A800F02EF8F0B92046C8
:10577000FEF730FFA0B104F124000599FFF7B2FB5A
:105780002046FEF7A9FF00F057FA0028A3D14FF0FA
:1057900080500C490860BFF34F8FBFF36F8F9AE7BB
:1057A0002046FEF799FF00F047FA94E72046FEF7FF
:1057B00093FF00F041FA2046FEF70CFF00288AD044
:1057C0000020A8E704ED00E070B505460C4655B989
:1057D00000BF502080F31188BFF34F8FBFF36F8F4E
:1057E00000BF00BFFEE754B900BF502080F311880E
:1057F000BFF34F8FBFF36F8F00BF00BFFEE7FFF710
:105800008BFA124802686868131A2068401C08B9AD
:10581000002617E00E4928680968884204D06868A5
:10582000904201D801260DE02068984207D92068EF
:10583000C01A20602846FFF743FB002602E0002044
:1058400020600126FFF792FA304670BD3400002038
:10585000480000202DE9FF4F85B080468946174655
:10586000DDE912ABB800FEF777FF064656B15420CB
:10587000FEF772FF04460CB1266304E03046FFF7E2
:1058800093FA00E000248CB1002084F85100CDE9A7
:1058900000ABCDE902403A4649464046089BFEF738
:1058A000DCFD2046FEF77AFC012501E04FF0FF35D4
:1058B000284609B0BDE8F08F2DE9F04F85B00746C6
:1058C000884691469A46DDE90EB6109C0EB101203D
:1058D00000E0002050B900BF502080F31188BFF3D2
:1058E0004F8FBFF36F8F00BF00BFFEE70CB10120E9
:1058F00000E0002050B900BF502080F31188BFF3B2
:105900004F8FBFF36F8F00BF00BFFEE7542003909F
:105910000398542801D1012000E0002050B900BFB5
:10592000502080F31188BFF34F8FBFF36F8F00BFFC
:1059300000BFFEE7B4B1AEB125462C462E6302206F
:1059400085F85100002004A953464A46CDE900B12C
:10595000CDE9025041463846FEF77FFD2846FEF766
:105960001DFC01E000200490049805B0BDE8F08F14
:105970000549096809B9012005E00449096809B920
:10598000022000E0002070473C000020580000206A
:105990002DE9F0414FF0000844480068002877D115
:1059A00043480068451C4248056015BB41480068F3
:1059B000006808B9012000E0002050B900BF502065
:1059C00080F31188BFF34F8FBFF36F8F00BF00BF0D
:1059D000FEE73848076838480068364908603648A6
:1059E000076036480068401C34490860FEF70EFE28
:1059F00000BF3348006885423CD300BF2D48006893
:105A0000006808B9012000E0002020B14FF0FF300D
:105A10002B4908602DE027480068C068C4686668A4
:105A2000B54202D22648066023E0201DFFF71EF98A
:105A3000A06A18B104F11800FFF718F994F82C10B7
:105A4000012088401F49096808431E490860E16A2F
:105A500001EB81011C4A02EB8100211DFFF750F987
:105A60001A49E06A0968C96A8842C7D34FF0010839
:105A7000C4E700BF15480068C06A00EB8000124907
:105A800051F82000012801D94FF0010805E0FFE797
:105A90000F480068401C0E4908600E48006808B1B5
:105AA0004FF001084046BDE8F0810000580000209A
:105AB000340000202400002028000020480000209E
:105AC0005000002038000020F803002020000020B3
:105AD000400000204400002070B505462C460026FA
